:100000000C945F000C9489000C94B0000C94D70001
:100010000C943A010C949D010C9487000C94870079
:100020000C9487000C9487000C9487000C94870034
:100030000C9487000C9487000C9487000C94870024
:100040000C94E5080C9487000C9498040C94CA0452
:100050000C9487000C9487000C9487000C94870004
:100060000C9487000C948700000000080002010037
:100070000003040700000000000000000102040863
:100080001020408001020408102001020408102002
:10009000040404040404040402020202020203032E
:1000A0000303030300000000250028002B000000CC
:1000B0000000240027002A00EF02FA04F5021124B0
:1000C0001FBECFEFD8E0DEBFCDBF11E0A0E0B1E0B2
:1000D000E6E2FFE102C005900D92A233B107D9F725
:1000E00022E0A2E3B1E001C01D92AC31B207E1F71A
:1000F00010E0CEE5D0E004C02197FE010E94B40AD2
:10010000CC35D107C9F70E94D6080C94860F0C9401
:1001100000001F920F920FB60F9211242F933F935E
:100120004F935F936F937F938F939F93AF93BF93FF
:10013000EF93FF93E0916E01F0916F010995FF91AC
:10014000EF91BF91AF919F918F917F916F915F914F
:100150004F913F912F910F900FBE0F901F901895C8
:100160001F920F920FB60F9211242F933F934F932C
:100170005F936F937F938F939F93AF93BF93EF930F
:10018000FF93E0917001F09171010995FF91EF915A
:10019000BF91AF919F918F917F916F915F914F919F
:1001A0003F912F910F900FBE0F901F9018951F92A7
:1001B0000F920FB60F9211242F933F934F935F939B
:1001C0006F937F938F939F93AF93BF93CF93EF934F
:1001D000FF9323B1C0914301909145018091440167
:1001E000322F309583239223892B90916B00C22765
:1001F000C923C82320934301CC2351F1C0FF05C07C
:10020000E0916201F09163010995C1FF05C0E091A1
:100210006401F09165010995C2FF05C0E091660196
:10022000F09167010995C3FF05C0E0916801F09165
:1002300069010995C4FF05C0E0916A01F0916B0165
:100240000995C5FF05C0E0916C01F0916D0109951C
:10025000FF91EF91CF91BF91AF919F918F917F913E
:100260006F915F914F913F912F910F900FBE0F9023
:100270001F9018951F920F920FB60F9211242F9373
:100280003F934F935F936F937F938F939F93AF931E
:10029000BF93CF93EF93FF9326B1C091400190910C
:1002A000420180914101322F309583239223892B83
:1002B00090916C00C227C923C82320934001CC230E
:1002C00051F1C0FF05C0E0915601F0915701099529
:1002D000C1FF05C0E0915801F09159010995C2FF95
:1002E00005C0E0915A01F0915B010995C3FF05C07B
:1002F000E0915C01F0915D010995C4FF05C0E091BA
:100300005E01F0915F010995C5FF05C0E0916001B4
:10031000F09161010995FF91EF91CF91BF91AF915C
:100320009F918F917F916F915F914F913F912F910D
:100330000F900FBE0F901F9018951F920F920FB63F
:100340000F9211242F933F934F935F936F937F935B
:100350008F939F93AF93BF93CF93EF93FF9329B165
:10036000C0913D0190913F0180913E01322F309527
:1003700083239223892B90916D00C227C923C82320
:1003800020933D01CC23C1F1C0FF05C0E09146019F
:10039000F09147010995C1FF05C0E0914801F09136
:1003A00049010995C2FF05C0E0914A01F0914B0156
:1003B0000995C3FF05C0E0914C01F0914D010995ED
:1003C000C4FF05C0E0914E01F0914F010995C5FFB2
:1003D00005C0E0915001F09151010995C6FF05C09B
:1003E000E0915201F09153010995C7FF05C0E091DA
:1003F0005401F09155010995FF91EF91CF91BF9173
:10040000AF919F918F917F916F915F914F913F91AC
:100410002F910F900FBE0F901F90189526E040E08F
:1004200052EC61E070E082E791E00E94330467E003
:1004300071E082E791E00E94670542E350E060E0EE
:1004400070E082E791E00E94700785B5887F846044
:1004500085BD60E08FE00E941B0A60E08EE00E9494
:100460001B0A61E085E00E941B0A61E086E00E94B1
:100470001B0A6EE570E085E00E9493096EE570E06E
:1004800086E00C9493098F929F92AF92BF92CF9285
:10049000DF92EF92FF926091340170913501072E47
:1004A000000C880B990B0E94E50B20E030E04AE736
:1004B00054E40E943B0B23E333E343E850E40E94FF
:1004C0003B0B20E030E04FE753E40E949A0C4B01D5
:1004D0005C016091320170913301072E000C880B92
:1004E000990B0E94E50B20E030E04AE754E40E94BB
:1004F0003B0B23E333E343E850E40E943B0B20E053
:1005000030E04FE753E40E949A0C6B017C0120E03D
:1005100030E048EF52E4C501B4010E94950C181672
:100520008CF020E030E04CE752E4C501B4010E94B9
:10053000360B87FF0DC0812C912C3CE7A32E32E4B3
:10054000B32E06C0812C912C28EFA22E22E4B22ECD
:1005500020E030E048EF52E4C701B6010E94950C5C
:1005600018168CF020E030E04CE752E4C701B601E9
:100570000E94360B87FF0DC0C12CD12C9CE7E92EC1
:1005800092E4F92E06C0C12CD12C88EFE82E82E42B
:10059000F82EC501B4010E94AD0B85E00E949309BD
:1005A000C701B6010E94AD0B86E00E94930922E0CC
:1005B00030E0B501A40182E791E00E94F00622E05C
:1005C00030E0B701A60182E791E0FF90EF90DF9065
:1005D000CF90BF90AF909F908F900C94F00662E107
:1005E00071E086E391E00C945D0886E391E00C9461
:1005F000EF0782E791E00E945E03181619060CF0DF
:100600005CC041E060E070E082E791E00E94760724
:1006100060933C0161112FC062E171E086E391E0DB
:100620000E94720882E791E00E945E03892BD1F359
:1006300082E791E00E94780380933C01833549F47E
:1006400086E391E00E94CA087093350160933401FB
:10065000E3CF853451F486E391E00E94CA08709399
:100660003301609332010C944302682F86E391E0DA
:100670000E94B708D7CF613001F58EE00E9476095D
:100680004AE050E0BC0182E791E00E94070660E189
:1006900071E082E791E00E9467058FE00E94760991
:1006A0004AE050E0BC0182E791E00E94070660E169
:1006B00071E082E791E00C9467050895FC01918D4B
:1006C000228D892F90E0805C9F4F821B91098F7350
:1006D00099270895FC01918D828D981731F0828DB4
:1006E000E80FF11D858D90E008958FEF9FEF08953D
:1006F000FC01918D828D981761F0828DDF01A80F2A
:10070000B11D5D968C91928D9F5F9F73928F90E04B
:1007100008958FEF9FEF0895FC01538D448D252F91
:1007200030E0842F90E0821B930B541710F0CF968B
:1007300008950197089580EF94E0892B49F080E0B7
:1007400090E0892B29F00E94F00481110C940000A4
:100750000895FC01848DDF01A80FB11DA35ABF4F7E
:100760002C91848D90E001968F739927848FA689B0
:10077000B7892C93A089B1898C9180648C93938DD7
:10078000848D981306C00288F389E02D80818F7DC7
:1007900080830895CF93DF93EC01888D8823C9F07F
:1007A000EA89FB89808185FD05C0A889B9898C917A
:1007B00086FD0FC00FB607FCF5CF808185FFF2CF15
:1007C000A889B9898C9185FFEDCFCE010E94A9033C
:1007D000E7CFDF91CF910895EF92FF920F931F9390
:1007E000CF93DF93EC0181E0888F9B8D8C8D9813E4
:1007F00005C0E889F989808185FD24C0F62E0B8D1E
:1008000010E00F5F1F4F0F731127E02E8C8DE81241
:100810000CC00FB607FCFACFE889F989808185FF03
:10082000F5CFCE010E94A903F1CF8B8DFE01E80F19
:10083000F11DE35AFF4FF0820B8FEA89FB8980811B
:10084000806207C0EE89FF896083E889F989808129
:100850008064808381E090E0DF91CF911F910F91C0
:10086000FF90EF900895CF92DF92EF92FF921F9347
:10087000CF93DF93EC016A017B01122FE889F9899C
:1008800082E080834115514E61057105B1F060E051
:1008900079E08DE390E0A70196010E94870ADA01D2
:1008A000C9010197A109B109B695A79597958795B3
:1008B000AC01411580E15807A8F0E889F989108258
:1008C00060E874E88EE190E0A70196010E94870A33
:1008D000BA01A901415051096109710976956795DD
:1008E00057954795EC85FD855083EE85FF854083C0
:1008F000188EEC89FD891083EA89FB8980818061EB
:100900008083EA89FB89808188608083EA89FB890A
:10091000808180688083EA89FB8980818F7D8083E4
:10092000DF91CF911F91FF90EF90DF90CF900895CE
:100930001F920F920FB60F9211242F938F939F93B4
:10094000EF93FF93E0918201F09183018081E09128
:100950008801F091890182FD12C0908180918B0104
:100960008F5F8F7320918C01821751F0E0918B0182
:10097000F0E0EE58FE4F958F80938B0101C080818F
:10098000FF91EF919F918F912F910F900FBE0F903C
:100990001F9018951F920F920FB60F9211242F934C
:1009A0003F934F935F936F937F938F939F93AF93F7
:1009B000BF93EF93FF9382E791E00E94A903FF9119
:1009C000EF91BF91AF919F918F917F916F915F91C7
:1009D0004F913F912F910F900FBE0F901F90189540
:1009E00082E791E00E945E0321E0892B09F420E078
:1009F000822F0895E2E7F1E01382128288EE93E0FD
:100A0000A0E0B0E084839583A683B78387E191E07B
:100A10009183808385EC90E09587848784EC90E0D7
:100A20009787868780EC90E0918B808B81EC90E0BB
:100A3000938B828B82EC90E0958B848B86EC90E09C
:100A4000978B868B118E128E138E148E0895CF92F3
:100A5000DF92EF92FF920F931F93CF93DF936C017E
:100A60007A018B01C0E0D0E0CE15DF0589F0D80116
:100A70006D918D01D601ED91FC910190F081E02DF9
:100A8000C6010995892B11F47E0102C02196ECCF95
:100A9000C701DF91CF911F910F91FF90EF90DF90F1
:100AA000CF9008956115710579F0FB010190002048
:100AB000E9F73197AF01461B570BDC01ED91FC9133
:100AC0000280F381E02D099480E090E008950C9479
:100AD0005205DC01ED91FC910190F081E02D09942B
:100AE00060E171E00C9452054F925F926F927F9299
:100AF000EF92FF920F931F93CF93DF93CDB7DEB7A3
:100B0000A1970FB6F894DEBF0FBECDBF7C01FA01EE
:100B1000CB0119A2223008F42AE08E010F5D1F4F8D
:100B2000422E512C612C712CBF01A30192010E9415
:100B3000870AF901CA01015011096A3014F4605D95
:100B400001C0695CD8016C93232B242B252B61F702
:100B5000B801C7010E945205A1960FB6F894DEBFF6
:100B60000FBECDBFDF91CF911F910F91FF90EF90FE
:100B70007F906F905F904F900895CF92DF92EF92A9
:100B8000FF920F931F93CF93DF93EC016A017B01D8
:100B90002115310579F4E881F9810190F081E02D8A
:100BA000642FDF91CF911F910F91FF90EF90DF9015
:100BB000CF9009942A303105E9F477FF1AC06DE22D
:100BC0000E9469058C0144275527BA014C195D091B
:100BD0006E097F092AE0CE010E947405800F911FE3
:100BE000DF91CF911F910F91FF90EF90DF90CF9009
:100BF00008952AE0B701A601CE01DF91CF911F91A0
:100C00000F91FF90EF90DF90CF900C9474059A01B4
:100C1000AB01770F660B770B0C94BD054F925F927B
:100C20006F927F928F929F92AF92BF92CF92DF92FC
:100C3000EF92FF92CF93DF93EC016A017B01B22E1A
:100C40009A01AB01C701B6010E94070D882319F074
:100C500065E271E027C026013701E89477F82FEFAD
:100C60003FEF4FE75FE7C301B2010E94070D81111B
:100C70000DC02FEF3FEF4FE75FE7C301B2010E94C6
:100C8000360B18161CF469E271E00CC02FEF3FEF31
:100C90004FE75FE4C701B6010E94950C18169CF45B
:100CA0006DE271E0CE01DF91CF91FF90EF90DF9088
:100CB000CF90BF90AF909F908F907F906F905F90FC
:100CC0004F900C9452052FEF3FEF4FE75FECC701B9
:100CD000B6010E94360B87FDE3CF20E030E0A9018A
:100CE000C701B6010E94360B87FF0AC06DE2CE0134
:100CF0000E9469054C01F7FAF094F7F8F09402C0ED
:100D0000812C912CA12C60E070E080E09FE3AB147B
:100D100041F020E030E040E251E40E943B0BA3941C
:100D2000F6CF9B01AC01C701B6010E94CA0A2B0194
:100D30003C010E94B40B6B017C010E94E30B9B0100
:100D4000AC01C301B2010E94C90A2B013C012AE097
:100D5000B701A601CE010E9474057C01E80CF91CC4
:100D6000BB2031F06EE2CE010E946905E80EF91E4B
:100D7000DB2CDD2029F120E030E040E251E4C3012A
:100D8000B2010E949A0C2B013C010E94B40B4B0152
:100D9000A12CB12C2AE0B501A401CE010E9474055A
:100DA000E80EF91EC501B4010E94E30B9B01AC01E2
:100DB000C301B2010E94C90A2B013C01DA94D9CFC8
:100DC000C701DF91CF91FF90EF90DF90CF90BF9060
:100DD000AF909F908F907F906F905F904F9008950D
:100DE0000F931F93CF93DF93EC010E940E068C01AB
:100DF000CE010E947005800F911FDF91CF911F914E
:100E00000F9108950F931F93CF93DF93EC010E94EE
:100E10002F09688779878A879B87E881F98104840D
:100E2000F585E02DCE01099597FF17C00E942F0987
:100E3000088519852A853B85DC01CB01801B910B38
:100E4000A20BB30B0C811D812E813F81801791076E
:100E5000A207B30710F38FEF9FEFDF91CF911F91A0
:100E60000F910895FF920F931F93CF93DF93EC019F
:100E70008B01F42ECE010E9402079C0197FD0BC04E
:100E80008D32910541F0C0970A9728F0FF2029F094
:100E90002E32310511F4C9011DC001301105C1F018
:100EA0000230110569F42D30310551F034F4295028
:100EB00031092230310520F00BC02032310541F4D8
:100EC000E881F9810284F385E02DCE010995D2CF26
:100ED0008FEF9FEFDF91CF911F910F91FF900895BA
:100EE000FC01448355836683778308958F929F9294
:100EF000AF92BF92CF92DF92FF920F931F93CF9347
:100F0000DF9300D000D0CDB7DEB78C01B42E40E027
:100F10000E943207FC0197FD4CC020E030E0A9019F
:100F2000F12CCB2CBB0CDD08EC15FD05F1F0ED32FE
:100F3000F105C9F0CF01C0970A97B8F4AAE0B0E074
:100F40000E94A90A4F01FF0FAA08BB08DC01CB01D0
:100F5000880D991DAA1DBB1D9C01AD0120533109AF
:100F60004109510902C0FF24F394D801ED91FC918D
:100F70000284F385E02DC80129833A834B835C8387
:100F80000995C8010E940207FC01C09729813A8196
:100F90004B815C810A9740F2EC15FD0529F2FF2098
:100FA00061F066277727CB01621B730B840B950BCF
:100FB00006C060E070E0CB0102C0CA01B9010F9029
:100FC0000F900F900F90DF91CF911F910F91FF9095
:100FD000DF90CF90BF90AF909F908F900895FC01CD
:100FE000808191810C94A10DCF93DF93EC018881D6
:100FF0009981009711F00E94A10D198218821D821B
:101000001C821B821A82DF91CF9108950F931F9348
:10101000CF93DF93EC018B016F5F7F4F88819981C4
:101020000E94390E009731F0998388831B830A83CD
:1010300081E001C080E0DF91CF911F910F91089571
:10104000CF93DF93EC0188819981892B29F08A81E4
:101050009B818617970760F4CE010E9406088823BB
:1010600041F08C819D81892B19F4E881F9811082EE
:1010700081E0DF91CF910895EF92FF920F931F933C
:10108000CF93DF93EC017B018A01BA010E94200813
:10109000811104C0CE010E94F40707C01D830C8398
:1010A000B701888199810E94330FCE01DF91CF91E2
:1010B0001F910F91FF90EF900895FC011182108213
:1010C00013821282158214826115710551F0FB01A1
:1010D00001900020E9F73197AF01461B570B0C94A4
:1010E0003C080895CF93DF93EC016115710559F029
:1010F000FB0101900020E9F73197AF01461B570B28
:101100000E943C0802C00E94F407CE01DF91CF91FB
:101110000895EF92FF920F931F93CF93DF93FC01FB
:10112000248135816115710511F480E019C04115E4
:101130005105A9F07B01EC018A01020F131FB801D0
:101140000E942008882389F3288139818C819D8120
:10115000B701820F931F0E94330F1D830C8381E020
:10116000DF91CF911F910F91FF90EF900895CF9352
:10117000DF9300D0CDB7DEB769831A8241E050E03B
:10118000BE016F5F7F4F0E9489080F900F90DF9123
:10119000CF910895FC0180819181009711F00C940A
:1011A000030F60E070E0CB01089508950E943B09B1
:1011B0000E94D5080E940E02CBE9D3E00E94F902FA
:1011C0002097E1F30E949B03F9CF1F920F920FB675
:1011D0000F9211242F933F938F939F93AF93BF93BD
:1011E0008091100290911102A0911202B09113020D
:1011F00030910F0223E0230F2D3720F40196A11D1B
:10120000B11D05C026E8230F0296A11DB11D209334
:101210000F028093100290931102A0931202B093D8
:1012200013028091140290911502A0911602B091C0
:1012300017020196A11DB11D80931402909315020F
:10124000A0931602B0931702BF91AF919F918F9117
:101250003F912F910F900FBE0F901F9018952FB7B1
:10126000F894609110027091110280911202909195
:1012700013022FBF0895789484B5826084BD84B52D
:10128000816084BD85B5826085BD85B5816085BD81
:10129000EEE6F0E0808181608083E1E8F0E010829A
:1012A000808182608083808181608083E0E8F0E0DB
:1012B000808181608083E1EBF0E0808184608083C5
:1012C000E0EBF0E0808181608083EAE7F0E08081FC
:1012D000846080838081826080838081816080835C
:1012E0008081806880831092C10008958E3008F05C
:1012F0008E5087702091060190E4299F900111245F
:10130000822B80937C0080917A00806480937A00A5
:1013100080917A0086FDFCCF809178002091790041
:1013200090E0922B08951F93CF93DF93182FEB013A
:1013300061E00E941B0A209711F460E004C0CF3FD7
:10134000D10539F461E0812FDF91CF911F910C9489
:10135000570AE12FF0E0E859FF4FE491E330F9F04C
:1013600048F4E130B9F0E230A1F584B5806284BD83
:10137000C8BD34C0E730E9F0E83019F1E43049F590
:1013800080918000806280938000D0938B00C09316
:101390008A0024C084B5806884BDC7BD1FC0809109
:1013A0008000806880938000D0938900C09388007B
:1013B00015C08091B00080688093B000C093B300E6
:1013C0000DC08091B00080628093B000C093B400E3
:1013D00005C0C038D1050CF0B5CFAFCFDF91CF91AC
:1013E0001F910895833081F028F4813099F0823084
:1013F000A1F008958730A9F08830B9F08430D1F495
:10140000809180008F7D03C0809180008F778093D2
:101410008000089584B58F7702C084B58F7D84BD28
:1014200008958091B0008F7703C08091B0008F7DC8
:101430008093B0000895CF93DF9390E0FC01E458CF
:10144000FF4F2491FC01E057FF4F8491882361F105
:1014500090E0880F991FFC01E255FF4FC591D49190
:10146000FC01EC55FF4FA591B491611109C09FB7E4
:10147000F8948881209582238883EC912E230BC0D9
:10148000623061F49FB7F8943881822F809583236E
:101490008883EC912E2B2C939FBF06C08FB7F894B6
:1014A000E8812E2B28838FBFDF91CF9108951F9362
:1014B000CF93DF93282F30E0F901E859FF4F849153
:1014C000F901E458FF4FD491F901E057FF4FC4915F
:1014D000CC23C9F0162F81110E94F209EC2FF0E005
:1014E000EE0FFF1FEC55FF4FA591B4918FB7F89405
:1014F000111105C09C91ED2FE095E92302C0EC91FC
:10150000ED2BEC938FBFDF91CF911F910895A1E256
:101510001A2EAA1BBB1BFD010DC0AA1FBB1FEE1F6D
:10152000FF1FA217B307E407F50720F0A21BB30BB8
:10153000E40BF50B661F771F881F991F1A9469F734
:1015400060957095809590959B01AC01BD01CF0190
:1015500008950E94BA0AA59F900DB49F900DA49F74
:10156000800D911D11240895EE0FFF1F0590F49139
:10157000E02D0994A29FB001B39FC001A39F700DFD
:10158000811D1124911DB29F700D811D1124911D8B
:1015900008955058BB27AA270E94E10A0C945B0CBF
:1015A0000E944D0C38F00E94540C20F039F49F3FFB
:1015B00019F426F40C944A0C0EF4E095E7FB0C9415
:1015C000440CE92F0E946C0C58F3BA17620773079A
:1015D0008407950720F079F4A6F50C948E0C0EF490
:1015E000E0950B2EBA2FA02D0B01B90190010C0133
:1015F000CA01A0011124FF27591B99F0593F50F44B
:10160000503E68F11A16F040A22F232F342F4427A2
:10161000585FF3CF469537952795A795F04053959A
:10162000C9F77EF41F16BA0B620B730B840BBAF06A
:101630009150A1F0FF0FBB1F661F771F881FC2F7D5
:101640000EC0BA0F621F731F841F48F487957795E9
:101650006795B795F7959E3F08F0B0CF9395880FA3
:1016600008F09927EE0F9795879508950E94200C12
:1016700008F481E008950E944F0B0C945B0C0E94CB
:10168000540C58F00E944D0C40F029F45F3F29F0B3
:101690000C94440C51110C948F0C0C944A0C0E9425
:1016A0006C0C68F39923B1F3552391F3951B550BFB
:1016B000BB27AA2762177307840738F09F5F5F4F25
:1016C000220F331F441FAA1FA9F335D00E2E3AF064
:1016D000E0E832D091505040E695001CCAF72BD07C
:1016E000FE2F29D0660F771F881FBB1F26173707CD
:1016F0004807AB07B0E809F0BB0B802DBF01FF27FF
:1017000093585F4F3AF09E3F510578F00C94440C8B
:101710000C948F0C5F3FE4F3983ED4F38695779555
:101720006795B795F7959F5FC9F7880F911D9695B7
:10173000879597F90895E1E0660F771F881FBB1F13
:10174000621773078407BA0720F0621B730B840BC0
:10175000BA0BEE1F88F7E09508950E94B40B6894C9
:10176000B1110C948F0C08950E94740C88F09F574F
:1017700098F0B92F9927B751B0F0E1F0660F771FB5
:10178000881F991F1AF0BA95C9F714C0B13091F0AB
:101790000E948E0CB1E008950C948E0C672F782F68
:1017A0008827B85F39F0B93FCCF386957795679570
:1017B000B395D9F73EF490958095709561957F4FDC
:1017C0008F4F9F4F0895E89409C097FB3EF4909582
:1017D0008095709561957F4F8F4F9F4F9923A9F00A
:1017E000F92F96E9BB279395F69587957795679599
:1017F000B795F111F8CFFAF4BB0F11F460FF1BC0DD
:101800006F5F7F4F8F4F9F4F16C0882311F096E96F
:1018100011C0772321F09EE8872F762F05C066231D
:1018200071F096E8862F70E060E02AF09A95660FD6
:10183000771F881FDAF7880F9695879597F908958F
:10184000990F0008550FAA0BE0E8FEEF16161706D1
:10185000E807F907C0F012161306E407F50798F039
:10186000621B730B840B950B39F40A2661F0232B52
:10187000242B252B21F408950A2609F4A140A695CE
:101880008FEF811D811D089597F99F6780E870E0B3
:1018900060E008959FEF80EC089500240A941616E6
:1018A000170618060906089500240A94121613064E
:1018B000140605060895092E0394000C11F48823DC
:1018C00052F0BB0F40F4BF2B11F460FF04C06F5FF8
:1018D0007F4F8F4F9F4F089557FD9058440F551FCE
:1018E00059F05F3F71F04795880F97FB991F61F0A2
:1018F0009F3F79F087950895121613061406551F19
:10190000F2CF4695F1DF08C0161617061806991F84
:10191000F1CF86957105610508940895E894BB2779
:1019200066277727CB0197F908950E94200C08F4C9
:101930008FEF08950E94AD0C0C945B0C0E944D0C2F
:1019400038F00E94540C20F0952311F00C94440CB4
:101950000C944A0C11240C948F0C0E946C0C70F3A4
:10196000959FC1F3950F50E0551F629FF001729F44
:10197000BB27F00DB11D639FAA27F00DB11DAA1F53
:10198000649F6627B00DA11D661F829F2227B00DA0
:10199000A11D621F739FB00DA11D621F839FA00D2B
:1019A000611D221F749F3327A00D611D231F849F7B
:1019B000600D211D822F762F6A2F11249F575040D2
:1019C0009AF0F1F088234AF0EE0FFF1FBB1F661F4D
:1019D000771F881F91505040A9F79E3F510580F016
:1019E0000C94440C0C948F0C5F3FE4F3983ED4F3BA
:1019F000869577956795B795F795E7959F5FC1F7BA
:101A0000FE2B880F911D9695879597F908950E9452
:101A1000200C880B990B0895CF93DF9382309105AA
:101A200010F482E090E0E0911A02F0911B0220E0B5
:101A300030E0C0E0D0E0309711F14081518148178B
:101A40005907C0F04817590761F4828193812097A4
:101A500019F09B838A832BC090931B0280931A02F8
:101A600026C02115310519F04217530718F49A01C1
:101A7000BE01DF01EF010280F381E02DDCCF2115F3
:101A8000310509F1281B390B2430310590F41296E9
:101A90008D919C9113976115710521F0FB01938342
:101AA000828304C090931B0280931A02FD01329638
:101AB00044C0FD01E20FF31F81939193225031093D
:101AC0002D933C933AC02091180230911902232B98
:101AD00041F42091020130910301309319022093C7
:101AE000180220910001309101012115310541F4C6
:101AF0002DB73EB74091040150910501241B350BD1
:101B0000E0911802F0911902E217F307A0F42E1BDE
:101B10003F0B2817390778F0AC014E5F5F4F241751
:101B2000350748F04E0F5F1F50931902409318027B
:101B30008193919302C0E0E0F0E0CF01DF91CF917B
:101B400008950F931F93CF93DF93009709F48CC0F0
:101B5000FC0132971382128200911A0210911B022B
:101B60000115110581F420813181820F931F20918D
:101B70001802309119022817390779F5F0931902E4
:101B8000E093180271C0D80140E050E0AE17BF07E3
:101B900050F412962D913C911397AD01211531050A
:101BA00009F1D901F3CF9D01DA01338322836081EA
:101BB0007181860F971F8217930769F4EC012881C2
:101BC0003981260F371F2E5F3F4F318320838A8153
:101BD0009B8193838283452B29F4F0931B02E0932E
:101BE0001A0242C01396FC93EE931297ED014991AD
:101BF00059919E01240F351FE217F30771F480817C
:101C00009181840F951F029611969C938E938281E9
:101C1000938113969C938E931297E0E0F0E0D801A5
:101C200012968D919C911397009719F0F8018C01F1
:101C3000F6CF8D919C9198012E5F3F4F820F931F9D
:101C400020911802309119022817390769F430974A
:101C500029F410921B0210921A0202C013821282FF
:101C60001093190200931802DF91CF911F910F91E9
:101C70000895A0E0B0E0EFE3FEE00C94530FEC0118
:101C8000009721F4CB010E940C0DB8C0FC01E60FB7
:101C9000F71F9C0122503109E217F30708F4ACC08A
:101CA000D9010D911C91119706171707B0F0053057
:101CB000110508F49FC0C80104978617970708F418
:101CC00099C002501109061B170B019311936D93D4
:101CD0007C93CF010E94A10D8DC05B01A01AB10AB7
:101CE0004C01800E911EA0911A02B0911B0240E09F
:101CF00050E0E12CF12C109709F44AC0A815B90561
:101D0000D1F56D907C901197630182E0C80ED11CD3
:101D1000CA14DB0480F1A3014A195B096A0182E05D
:101D2000C80ED11C1296BC9012971396AC91B5E0D8
:101D3000CB16D10440F0B282A38351834083D901F2
:101D40006D937C930AC00E5F1F4FC301800F911FDC
:101D5000F90191838083EB2DFA2FE114F10431F026
:101D6000D7011396FC93EE93129744C0F0931B0295
:101D7000E0931A023FC08D919C9111974817590723
:101D800008F4AC017D0112960D90BC91A02DB3CF4B
:101D9000809118029091190288159905E1F446176F
:101DA0005707C8F48091000190910101009741F418
:101DB0008DB79EB74091040150910501841B950B8E
:101DC000E817F907C8F4F0931902E0931802F90133
:101DD000718360830FC0CB010E940C0D7C010097C2
:101DE00059F0A801BE010E942A0FCE010E94A10D48
:101DF000C70104C0CE0102C080E090E0CDB7DEB7DD
:101E0000EEE00C946F0F1F93FC0199278827BC010B
:101E1000E89411911032E9F3193010F01E30C8F334
:101E20001B3251F01D3249F4689406C00E943A0FEB
:101E3000610F711D811D911D119110531A30B0F366
:101E40003EF490958095709561957F4F8F4F9F4F91
:101E50001F910895FB01DC0102C001900D924150D9
:101E60005040D8F70895FB01DC0101900D9200204D
:101E7000E1F70895592F482F372F262F660F771F28
:101E8000881F991F660F771F881F991F620F731F86
:101E9000841F951F660F771F881F991F08952F9223
:101EA0003F924F925F926F927F928F929F92AF92EA
:101EB000BF92CF92DF92EF92FF920F931F93CF9337
:101EC000DF93CDB7DEB7CA1BDB0B0FB6F894DEBFCE
:101ED0000FBECDBF09942A88398848885F846E84F4
:101EE0007D848C849B84AA84B984C884DF80EE803E
:101EF000FD800C811B81AA81B981CE0FD11D0FB647
:101F0000F894DEBF0FBECDBFED01089510E0CEE521
:101F1000D0E004C0FE010E94B40A2196CF35D1075B
:061F2000C9F7F894FFCFA1
:101F260000001C02800001636F6E6E656374656459
:101F36000D0A0000000000EC0327058C03CA035EAF
:101F46000378036A036E616E00696E66006F7666DB
:021F5600000089
:00000001FF
