:100000000C945F000C9487000C9487000C9487007C
:100010000C9487000C9487000C9487000C94870044
:100020000C9487000C9487000C9487000C947F013B
:100030000C9487000C9487000C9487000C94870024
:100040000C94A8070C9487000C9453040C9485041A
:100050000C9487000C9487000C9487000C94870004
:100060000C9487000C948700000000080002010037
:100070000003040700000000000000000102040863
:100080001020408001020408102001020408102002
:10009000040404040404040402020202020203032E
:1000A0000303030300000000250028002B000000CC
:1000B0000000240027002A00F500B50403011124E4
:1000C0001FBECFEFD8E0DEBFCDBF11E0A0E0B1E0B2
:1000D000E0E8F7E102C005900D92A632B107D9F72A
:1000E00022E0A6E2B1E001C01D92A730B207E1F71D
:1000F00010E0CEE5D0E004C02197FE010E94240963
:10010000CC35D107C9F70E9499070C94B30B0C9416
:10011000000026E040E052EC61E070E08DE591E007
:100120000E94EE0367E071E08DE591E00E942205F8
:1001300042E350E060E070E08DE591E00E9433061C
:1001400060E08FE00E947F0860E08EE00E947F0800
:1001500066E070E089E291E00E94DE0265E070E016
:1001600086E291E00E94DE028CED95E090932F01F3
:1001700080932E0190932D0180932C016CED75E0FE
:1001800089E291E00E94E40260912C0170912D01BE
:1001900086E291E00C94E40280912C0190912D0173
:1001A0008D3627E092071CF08CE697E005C08C3472
:1001B000944034F48CE494E090932D0180932C01CE
:1001C00080912E0190912F01813426E092071CF03E
:1001D00080E496E005C0823E954034F482EE95E0DE
:1001E00090932F0180932E01089562E171E080E3E6
:1001F00091E00E94200789E291E00E94400286E29D
:1002000091E00C94400280E391E00C94B2068DE5FD
:1002100091E00E941903181619060CF06FC041E016
:1002200060E070E08DE591E00E9439066093360150
:10023000611142C062E171E080E391E00E94350704
:100240008DE591E00E941903892BD1F38DE591E0B2
:100250000E94330380933601833549F480E391E0B3
:100260000E948D0770932D0160932C01E3CF85349C
:10027000E9F480E391E00E948D0770932F01609371
:100280002E010E94CC0060912E0170912F0161150A
:10029000710521F089E291E00E94E40260912C0155
:1002A00070912D0186E291E00C94E402682F80E3C6
:1002B00091E00E947A07C4CF613001F58EE00E9480
:1002C00039084AE050E0BC018DE591E00E94BE058E
:1002D00060E171E08DE591E00E9422058FE00E94CF
:1002E00039084AE050E0BC018DE591E00E94BE056E
:1002F00060E171E08DE591E00C94220508951F9274
:100300000F920FB60F9211242F933F934F935F9349
:100310006F937F938F939F93AF93BF93EF93FF93CD
:100320008091380187FF05C01092850010928400EB
:100330001BC020913801022E000C330B8091370135
:1003400090E02817390784F480913801082E000CBA
:10035000990BFC01EE0FFF1F8E0F9F1FFC01E75C46
:10036000FE4F808186FD15C0809138018F5F80939C
:10037000380120913801022E000C330B8091370197
:1003800090E028173907C4F4809138018C3064F16B
:1003900013C080913801082E000C990BFC01EE0F60
:1003A000FF1F8E0F9F1FFC01E75CFE4F808160E006
:1003B0008F730E94BB08D8CF8091840090918500F4
:1003C000049680349C4918F480E49CE905C080912F
:1003D0008400909185000496909389008093880012
:1003E0008FEF809338013BC02091840030918500CD
:1003F00080913801082E000C990BFC01EE0FFF1FB5
:100400008E0F9F1FFC01E75CFE4F81819281820F5E
:10041000931F909389008093880080913801082E63
:10042000000C990BFC01EE0FFF1F8E0F9F1FFC01AC
:10043000E75CFE4F808186FF12C080913801082E54
:10044000000C990BFC01EE0FFF1F8E0F9F1FFC018C
:10045000E75CFE4F808161E08F730E94BB08FF91D3
:10046000EF91BF91AF919F918F917F916F915F912C
:100470004F913F912F910F900FBE0F901F901895A5
:10048000FC01909137019C30A0F481E0890F8093AA
:1004900037019083892F90E0FC01EE0FFF1F8E0F34
:1004A0009F1FFC01E75CFE4F88EB9BE092838183FA
:1004B00008958FEF80830895DF92EF92FF920F935C
:1004C0001F93CF93DF93EC01D62E7A0189018881A7
:1004D0008C3008F06AC061E08D2D0E947F08888111
:1004E000E82FF0E09F01220F331FE20FF31FE75CBC
:1004F000FE4F9D2D9F732081207CD22ED92AD08241
:1005000060E272E0AB014E195F0957FF02C04D5F18
:100510005F4F5595479555954795498340E659E076
:100520009A01201B310B37FF02C02D5F3F4F3595DD
:100530002795359527952A836CE00E94EB089CE06F
:10054000899FB001112440E050E09A01260F371F27
:10055000F901EE0FFF1F2E0F3F1FF901E75CFE4F61
:10056000908196FD16C04F5F5F4F4C30510569F783
:1005700081110FC01092800082E080938100109260
:10058000850010928400B19A80916F008260809300
:100590006F00E881F0E0CF01880F991FE80FF91F85
:1005A000E75CFE4F8081806480838881DF91CF91FA
:1005B0001F910F91FF90EF90DF90089520E639E0B2
:1005C00040E252E00C945C02FC0190819C3080F58A
:1005D000818128E830E0281B310987FD3395220FFF
:1005E000331F220F331F621773077CF0828128E5C7
:1005F00032E0281B310987FD3395220F331F220F6C
:10060000331F621773070CF49B0122503109220F2C
:10061000331F4FB7F894892F90E0FC01EE0FFF1FB6
:100620008E0F9F1FFC01E75CFE4F328321834FBF7B
:100630000895FC01918D228D892F90E0805C9F4F61
:10064000821B91098F7399270895FC01918D828DEA
:10065000981731F0828DE80FF11D858D90E0089597
:100660008FEF9FEF0895FC01918D828D981761F0B7
:10067000828DDF01A80FB11D5D968C91928D9F5FD9
:100680009F73928F90E008958FEF9FEF0895FC0184
:10069000538D448D252F30E0842F90E0821B930BE7
:1006A000541710F0CF960895019708958BEA94E0BF
:1006B000892B49F080E090E0892B29F00E94AB045F
:1006C00081110C9400000895FC01848DDF01A80FB6
:1006D000B11DA35ABF4F2C91848D90E001968F736A
:1006E0009927848FA689B7892C93A089B1898C9189
:1006F00080648C93938D848D981306C00288F3894F
:10070000E02D80818F7D80830895CF93DF93EC016E
:10071000888D8823C9F0EA89FB89808185FD05C021
:10072000A889B9898C9186FD0FC00FB607FCF5CF5B
:10073000808185FFF2CFA889B9898C9185FFEDCFA3
:10074000CE010E946403E7CFDF91CF910895EF922D
:10075000FF920F931F93CF93DF93EC0181E0888F7B
:100760009B8D8C8D981305C0E889F989808185FD62
:1007700024C0F62E0B8D10E00F5F1F4F0F73112753
:10078000E02E8C8DE8120CC00FB607FCFACFE8897A
:10079000F989808185FFF5CFCE010E946403F1CFF6
:1007A0008B8DFE01E80FF11DE35AFF4FF0820B8F96
:1007B000EA89FB898081806207C0EE89FF896083B6
:1007C000E889F98980818064808381E090E0DF910D
:1007D000CF911F910F91FF90EF900895CF92DF92EC
:1007E000EF92FF921F93CF93DF93EC016A017B019D
:1007F000122FE889F98982E080834115514E610505
:100800007105B1F060E079E08DE390E0A701960119
:100810000E94F708DA01C9010197A109B109B6954B
:10082000A79597958795AC01411580E15807A8F0E9
:10083000E889F989108260E874E88EE190E0A70108
:1008400096010E94F708BA01A901415051096109B6
:1008500071097695679557954795EC85FD85508389
:10086000EE85FF854083188EEC89FD891083EA8927
:10087000FB89808180618083EA89FB89808188602F
:100880008083EA89FB89808180688083EA89FB898B
:1008900080818F7D8083DF91CF911F91FF90EF90BA
:1008A000DF90CF9008951F920F920FB60F921124F0
:1008B0002F938F939F93EF93FF93E0916D01F091AE
:1008C0006E018081E0917301F091740182FD12C08C
:1008D0009081809176018F5F8F73209177018217CD
:1008E00051F0E0917601F0E0E35AFE4F958F80934E
:1008F000760101C08081FF91EF919F918F912F919F
:100900000F900FBE0F901F9018951F920F920FB669
:100910000F9211242F933F934F935F936F937F9385
:100920008F939F93AF93BF93EF93FF938DE591E0E8
:100930000E946403FF91EF91BF91AF919F918F91BE
:100940007F916F915F914F913F912F910F900FBECB
:100950000F901F9018958DE591E00E94190321E0FA
:10096000892B09F420E0822F0895EDE5F1E0138250
:10097000128288EE93E0A0E0B0E084839583A683A2
:10098000B78387E191E09183808385EC90E0958740
:10099000848784EC90E09787868780EC90E0918B49
:1009A000808B81EC90E0938B828B82EC90E0958B36
:1009B000848B86EC90E0978B868B118E128E138E33
:1009C000148E0895CF92DF92EF92FF920F931F93B0
:1009D000CF93DF936C017A018B01C0E0D0E0CE159C
:1009E000DF0589F0D8016D918D01D601ED91FC9163
:1009F0000190F081E02DC6010995892B11F47E014B
:100A000002C02196ECCFC701DF91CF911F910F91CA
:100A1000FF90EF90DF90CF9008956115710579F008
:100A2000FB0101900020E9F73197AF01461B570BFE
:100A3000DC01ED91FC910280F381E02D099480E0CE
:100A400090E008950C940D05DC01ED91FC9101906E
:100A5000F081E02D09944F925F926F927F92EF9216
:100A6000FF920F931F93CF93DF93CDB7DEB7A1977C
:100A70000FB6F894DEBF0FBECDBF7C01FA01CB01EB
:100A800019A2223008F42AE08E010F5D1F4F422E7A
:100A9000512C612C712CBF01A30192010E94F70817
:100AA000F901CA01015011096A3014F4605D01C0F6
:100AB000695CD8016C93232B242B252B61F7B8019B
:100AC000C7010E940D05A1960FB6F894DEBF0FBEB8
:100AD000CDBFDF91CF911F910F91FF90EF907F904D
:100AE0006F905F904F900895CF92DF92EF92FF92B8
:100AF0000F931F93CF93DF93EC016A017B012115C4
:100B0000310579F4E881F9810190F081E02D642FBD
:100B1000DF91CF911F910F91FF90EF90DF90CF90D9
:100B200009942A303105E9F477FF1AC06DE20E947A
:100B300024058C0144275527BA014C195D096E091B
:100B40007F092AE0CE010E942B05800F911FDF91C3
:100B5000CF911F910F91FF90EF90DF90CF9008956C
:100B60002AE0B701A601CE01DF91CF911F910F912D
:100B7000FF90EF90DF90CF900C942B059A01AB0182
:100B8000770F660B770B0C9474050F931F93CF931D
:100B9000DF93EC010E94F207688779878A879B8739
:100BA000E881F9810484F585E02DCE01099597FF50
:100BB00017C00E94F207088519852A853B85DC014C
:100BC000CB01801B910BA20BB30B0C811D812E81DD
:100BD0003F8180179107A207B30710F38FEF9FEFB4
:100BE000DF91CF911F910F910895FF920F931F9363
:100BF000CF93DF93EC018B01F42ECE010E94C5054B
:100C00009C0197FD0BC08D32910541F0C0970A976A
:100C100028F0FF2029F02E32310511F4C9011DC042
:100C200001301105C1F00230110569F42D30310594
:100C300051F034F4295031092230310520F00BC035
:100C40002032310541F4E881F9810284F385E02DF9
:100C5000CE010995D2CF8FEF9FEFDF91CF911F91FA
:100C60000F91FF900895FC01448355836683778339
:100C700008958F929F92AF92BF92CF92DF92FF9290
:100C80000F931F93CF93DF9300D000D0CDB7DEB783
:100C90008C01B42E40E00E94F505FC0197FD4CC08C
:100CA00020E030E0A901F12CCB2CBB0CDD08EC15C9
:100CB000FD05F1F0ED32F105C9F0CF01C0970A97BB
:100CC000B8F4AAE0B0E00E9419094F01FF0FAA088A
:100CD000BB08DC01CB01880D991DAA1DBB1D9C0121
:100CE000AD01205331094109510902C0FF24F39499
:100CF000D801ED91FC910284F385E02DC801298390
:100D00003A834B835C830995C8010E94C505FC01A9
:100D1000C09729813A814B815C810A9740F2EC159A
:100D2000FD0529F2FF2061F066277727CB01621BC2
:100D3000730B840B950B06C060E070E0CB0102C022
:100D4000CA01B9010F900F900F900F90DF91CF91D2
:100D50001F910F91FF90DF90CF90BF90AF909F9029
:100D60008F900895FC01808191810C94CE09CF93DE
:100D7000DF93EC0188819981009711F00E94CE09E0
:100D8000198218821D821C821B821A82DF91CF91E8
:100D900008950F931F93CF93DF93EC018B016F5F47
:100DA0007F4F888199810E94660A009731F099836C
:100DB00088831B830A8381E001C080E0DF91CF91AB
:100DC0001F910F910895CF93DF93EC018881998152
:100DD000892B29F08A819B818617970760F4CE01C1
:100DE0000E94C906882341F08C819D81892B19F4CA
:100DF000E881F981108281E0DF91CF910895EF922F
:100E0000FF920F931F93CF93DF93EC017B018A0135
:100E1000BA010E94E306811104C0CE010E94B70608
:100E200007C01D830C83B701888199810E94600BE4
:100E3000CE01DF91CF911F910F91FF90EF90089518
:100E4000FC011182108213821282158214826115B4
:100E5000710551F0FB0101900020E9F73197AF01D6
:100E6000461B570B0C94FF060895CF93DF93EC01BC
:100E70006115710559F0FB0101900020E9F73197E8
:100E8000AF01461B570B0E94FF0602C00E94B70627
:100E9000CE01DF91CF910895EF92FF920F931F93B0
:100EA000CF93DF93FC01248135816115710511F425
:100EB00080E019C041155105A9F07B01EC018A01C0
:100EC000020F131FB8010E94E306882389F32881CB
:100ED00039818C819D81B701820F931F0E94600B25
:100EE0001D830C8381E0DF91CF911F910F91FF90C3
:100EF000EF900895CF93DF9300D0CDB7DEB769832D
:100F00001A8241E050E0BE016F5F7F4F0E944C07A4
:100F10000F900F90DF91CF910895FC018081918116
:100F2000009711F00C94300B60E070E0CB01089555
:100F300008950E94FE070E9498070E948900C6E556
:100F4000D3E00E9407012097E1F30E945603F9CFF6
:100F50001F920F920FB60F9211242F933F938F93EE
:100F60009F93AF93BF938091FB019091FC01A0915F
:100F7000FD01B091FE013091FA0123E0230F2D37DE
:100F800020F40196A11DB11D05C026E8230F02968D
:100F9000A11DB11D2093FA018093FB019093FC01E8
:100FA000A093FD01B093FE018091FF01909100029A
:100FB000A0910102B09102020196A11DB11D809382
:100FC000FF0190930002A0930102B0930202BF912F
:100FD000AF919F918F913F912F910F900FBE0F90E6
:100FE0001F9018952FB7F8946091FB017091FC0148
:100FF0008091FD019091FE012FBF0895789484B5F2
:10100000826084BD84B5816084BD85B5826085BD04
:1010100085B5816085BDEEE6F0E0808181608083EA
:10102000E1E8F0E0108280818260808380818160CD
:101030008083E0E8F0E0808181608083E1EBF0E094
:10104000808184608083E0EBF0E080818160808338
:10105000EAE7F0E080818460808380818260808321
:101060008081816080838081806880831092C1004C
:1010700008958E3008F08E5087702091060190E41C
:10108000299F90011124822B80937C0080917A000B
:10109000806480937A0080917A0086FDFCCF8091F5
:1010A00078002091790090E0922B0895833081F0B0
:1010B00028F4813099F08230A1F008958730A9F0AA
:1010C0008830B9F08430D1F4809180008F7D03C0E6
:1010D000809180008F7780938000089584B58F770A
:1010E00002C084B58F7D84BD08958091B0008F7754
:1010F00003C08091B0008F7D8093B0000895CF939E
:10110000DF9390E0FC01E458FF4F2491FC01E0578D
:10111000FF4F8491882361F190E0880F991FFC01B3
:10112000E255FF4FC591D491FC01EC55FF4FA591BD
:10113000B491611109C09FB7F894888120958223EA
:101140008883EC912E230BC0623061F49FB7F89432
:101150003881822F809583238883EC912E2B2C93CA
:101160009FBF06C08FB7F894E8812E2B28838FBFCE
:10117000DF91CF9108951F93CF93DF93282F30E015
:10118000F901E859FF4F8491F901E458FF4FD491D8
:10119000F901E057FF4FC491CC23C9F0162F8111FC
:1011A0000E945608EC2FF0E0EE0FFF1FEC55FF4FAA
:1011B000A591B4918FB7F894111105C09C91ED2FB2
:1011C000E095E92302C0EC91ED2BEC938FBFDF910A
:1011D000CF911F910895991B79E004C0991F96172C
:1011E00008F0961B881F7A95C9F780950895A1E2AB
:1011F0001A2EAA1BBB1BFD010DC0AA1FBB1FEE1F91
:10120000FF1FA217B307E407F50720F0A21BB30BDB
:10121000E40BF50B661F771F881F991F1A9469F757
:1012200060957095809590959B01AC01BD01CF01B3
:1012300008950E942A09A59F900DB49F900DA49F28
:10124000800D911D11240895EE0FFF1F0590F4915C
:10125000E02D0994A29FB001B39FC001A39F700D20
:10126000811D1124911DB29F700D811D1124911DAE
:101270000895CF93DF938230910510F482E090E0DF
:10128000E0910502F091060220E030E0C0E0D0E0FD
:10129000309711F14081518148175907C0F0481724
:1012A000590761F482819381209719F09B838A8387
:1012B0002BC0909306028093050226C021153105AC
:1012C00019F04217530718F49A01BE01DF01EF012C
:1012D0000280F381E02DDCCF2115310509F1281BB7
:1012E000390B2430310590F412968D919C9113970F
:1012F0006115710521F0FB019383828304C09093F3
:10130000060280930502FD01329644C0FD01E20F02
:10131000F31F81939193225031092D933C933AC04E
:101320002091030230910402232B41F42091020109
:1013300030910301309304022093030220910001B5
:10134000309101012115310541F42DB73EB740918F
:10135000040150910501241B350BE0910302F0912B
:101360000402E217F307A0F42E1B3F0B28173907DE
:1013700078F0AC014E5F5F4F2417350748F04E0FF1
:101380005F1F50930402409303028193919302C024
:10139000E0E0F0E0CF01DF91CF9108950F931F932C
:1013A000CF93DF93009709F48CC0FC01329713822E
:1013B000128200910502109106020115110581F4B7
:1013C00020813181820F931F20910302309104020A
:1013D0002817390779F5F0930402E093030271C0EE
:1013E000D80140E050E0AE17BF0750F412962D919F
:1013F0003C911397AD012115310509F1D901F3CFC6
:101400009D01DA013383228360817181860F971FEA
:101410008217930769F4EC0128813981260F371F61
:101420002E5F3F4F318320838A819B819383828308
:10143000452B29F4F0930602E093050242C013966F
:10144000FC93EE931297ED01499159919E01240F5F
:10145000351FE217F30771F480819181840F951F86
:10146000029611969C938E938281938113969C93FE
:101470008E931297E0E0F0E0D80112968D919C9146
:101480001397009719F0F8018C01F6CF8D919C917C
:1014900098012E5F3F4F820F931F209103023091DE
:1014A00004022817390769F4309729F410920602CC
:1014B0001092050202C0138212821093040200935C
:1014C0000302DF91CF911F910F910895A0E0B0E04A
:1014D000ECE6FAE00C94800BEC01009721F4CB01D0
:1014E0000E943909B8C0FC01E60FF71F9C01225089
:1014F0003109E217F30708F4ACC0D9010D911C9132
:10150000119706171707B0F00530110508F49FC0B2
:10151000C80104978617970708F499C0025011096B
:10152000061B170B019311936D937C93CF010E94BF
:10153000CE098DC05B01A01AB10A4C01800E911E2C
:10154000A0910502B091060240E050E0E12CF12CA0
:10155000109709F44AC0A815B905D1F56D907C9093
:101560001197630182E0C80ED11CCA14DB0480F11C
:10157000A3014A195B096A0182E0C80ED11C1296C8
:10158000BC9012971396AC91B5E0CB16D10440F005
:10159000B282A38351834083D9016D937C930AC0A7
:1015A0000E5F1F4FC301800F911FF901918380834C
:1015B000EB2DFA2FE114F10431F0D7011396FC93CF
:1015C000EE93129744C0F0930602E09305023FC0E9
:1015D0008D919C9111974817590708F4AC017D0132
:1015E00012960D90BC91A02DB3CF809103029091E3
:1015F000040288159905E1F446175707C8F480914D
:10160000000190910101009741F48DB79EB7409180
:10161000040150910501841B950BE817F907C8F4E4
:10162000F0930402E0930302F901718360830FC019
:10163000CB010E9439097C01009759F0A801BE0135
:101640000E94570BCE010E94CE09C70104C0CE01F3
:1016500002C080E090E0CDB7DEB7EEE00C949C0BCA
:101660001F93FC0199278827BC01E894119110323F
:10167000E9F3193010F01E30C8F31B3251F01D325F
:1016800049F4689406C00E94670B610F711D811DAB
:10169000911D119110531A30B0F33EF4909580953E
:1016A000709561957F4F8F4F9F4F1F910895FB015C
:1016B000DC0102C001900D9241505040D8F70895CE
:1016C000FB01DC0101900D920020E1F70895592FF4
:1016D000482F372F262F660F771F881F991F660FF9
:1016E000771F881F991F620F731F841F951F660F36
:1016F000771F881F991F08952F923F924F925F92F4
:101700006F927F928F929F92AF92BF92CF92DF9211
:10171000EF92FF920F931F93CF93DF93CDB7DEB776
:10172000CA1BDB0B0FB6F894DEBF0FBECDBF09940A
:101730002A88398848885F846E847D848C849B8461
:10174000AA84B984C884DF80EE80FD800C811B816F
:10175000AA81B981CE0FD11D0FB6F894DEBF0FBE9E
:10176000CDBFED01089510E0CEE5D0E004C0FE014C
:101770000E9424092196CF35D107C9F7F894FFCFED
:1017800000000702800001636F6E6E65637465641C
:101790000D0A0000000000A703E2044703850319B7
:0617A000033303250300E2
:00000001FF
